{
    "contractName": "MyBank",
    "abi": [
        {
            "inputs": [],
            "stateMutability": "nonpayable",
            "type": "constructor"
        },
        {
            "inputs": [
                {
                    "internalType": "int256",
                    "name": "amount",
                    "type": "int256"
                }
            ],
            "name": "depositeMyBalance",
            "outputs": [],
            "stateMutability": "nonpayable",
            "type": "function"
        },
        {
            "inputs": [],
            "name": "getBalanceValue",
            "outputs": [
                {
                    "internalType": "int256",
                    "name": "",
                    "type": "int256"
                }
            ],
            "stateMutability": "view",
            "type": "function"
        },
        {
            "inputs": [
                {
                    "internalType": "int256",
                    "name": "amount",
                    "type": "int256"
                }
            ],
            "name": "withdrawMyBalance",
            "outputs": [],
            "stateMutability": "nonpayable",
            "type": "function"
        }
    ],
    "bytecode": "608060405234801561001057600080fd5b50600160005561018a806100256000396000f3fe608060405234801561001057600080fd5b50600436106100415760003560e01c80633087e41214610046578063813784481461005b578063cf86b99f14610070575b600080fd5b6100596100543660046100a5565b610083565b005b60005460405190815260200160405180910390f35b61005961007e3660046100a5565b610097565b8060005461009191906100d4565b60005550565b806000546100919190610113565b6000602082840312156100b757600080fd5b5035919050565b634e487b7160e01b600052601160045260246000fd5b60008083128015600160ff1b8501841216156100f2576100f26100be565b6001600160ff1b038401831381161561010d5761010d6100be565b50500390565b600080821280156001600160ff1b0384900385131615610135576101356100be565b600160ff1b839003841281161561014e5761014e6100be565b5050019056fea2646970667358221220cd416bf73b0ddd22035d4dbe7ae4d040e78e379c0c2c9220b123782c0217bbe564736f6c634300080f0033",
    "sourcePath": "c:/truffle-project/contracts/MyBank.sol",
    "compiler": {
        "name": "solc",
        "version": "0.8.15+commit.e14f2714"
    },
    "functionHashes": {
        "depositeMyBalance(int256)": "cf86b99f",
        "getBalanceValue()": "81378448",
        "withdrawMyBalance(int256)": "3087e412"
    },
    "gasEstimates": {
        "creation": {
            "codeDepositCost": "78800",
            "executionCost": "22235",
            "totalCost": "101035"
        },
        "external": {
            "depositeMyBalance(int256)": "24609",
            "getBalanceValue()": "2268",
            "withdrawMyBalance(int256)": "24559"
        }
    }
}