{
  "contractName": "MyBank",
  "abi": [
    {
      "inputs": [],
      "stateMutability": "nonpayable",
      "type": "constructor"
    },
    {
      "inputs": [],
      "name": "getBalanceValue",
      "outputs": [
        {
          "internalType": "int256",
          "name": "",
          "type": "int256"
        }
      ],
      "stateMutability": "view",
      "type": "function",
      "constant": true
    },
    {
      "inputs": [
        {
          "internalType": "int256",
          "name": "amount",
          "type": "int256"
        }
      ],
      "name": "withdrawMyBalance",
      "outputs": [],
      "stateMutability": "nonpayable",
      "type": "function"
    },
    {
      "inputs": [
        {
          "internalType": "int256",
          "name": "amount",
          "type": "int256"
        }
      ],
      "name": "depositeMyBalance",
      "outputs": [],
      "stateMutability": "nonpayable",
      "type": "function"
    }
  ],
  "bytecode": "0x608060405234801561001057600080fd5b5060016000819055506102f2806100286000396000f3fe608060405234801561001057600080fd5b50600436106100415760003560e01c80633087e412146100465780638137844814610062578063cf86b99f14610080575b600080fd5b610060600480360381019061005b919061010e565b61009c565b005b61006a6100b3565b604051610077919061014a565b60405180910390f35b61009a6004803603810190610095919061010e565b6100bc565b005b806000546100aa9190610194565b60008190555050565b60008054905090565b806000546100ca9190610228565b60008190555050565b600080fd5b6000819050919050565b6100eb816100d8565b81146100f657600080fd5b50565b600081359050610108816100e2565b92915050565b600060208284031215610124576101236100d3565b5b6000610132848285016100f9565b91505092915050565b610144816100d8565b82525050565b600060208201905061015f600083018461013b565b92915050565b7f4e487b7100000000000000000000000000000000000000000000000000000000600052601160045260246000fd5b600061019f826100d8565b91506101aa836100d8565b9250827f8000000000000000000000000000000000000000000000000000000000000000018212600084121516156101e5576101e4610165565b5b827f7fffffffffffffffffffffffffffffffffffffffffffffffffffffffffffffff01821360008412161561021d5761021c610165565b5b828203905092915050565b6000610233826100d8565b915061023e836100d8565b9250817f7fffffffffffffffffffffffffffffffffffffffffffffffffffffffffffffff0383136000831215161561027957610278610165565b5b817f80000000000000000000000000000000000000000000000000000000000000000383126000831216156102b1576102b0610165565b5b82820190509291505056fea264697066735822122076ff9f3b42007ba341a3c653c776d3bdcb64376c8f59b21b085eae4be342e67b64736f6c634300080f0033",
  "immutableReferences": {},
  "source": "// SPDX-License-Identifier: MIT\r\npragma solidity >=0.4.22 <0.9.0;\r\n//Main class that will be used to perform operation on our block.\r\ncontract MyBank\r\n{\r\n//This is variable used for storing our balanceValue\r\nint balanceValue;\r\n\r\n//build constructor\r\n\r\nconstructor() \r\n{\r\n//initialise the variable\r\nbalanceValue = 1;\r\n}\r\n\r\n//As getBalance is not manupulating the value it is used to show the data on the screen and use view returns(int)\r\nfunction getBalanceValue() public view returns(int)\r\n{\r\n//return the current value of balanceValue\r\nreturn balanceValue;\r\n}\r\n\r\nfunction withdrawMyBalance(int amount) public\r\n{\r\nbalanceValue = balanceValue - amount;\r\n\r\n}\r\n\r\nfunction depositeMyBalance(int amount) public\r\n{\r\n\r\nbalanceValue = balanceValue + amount;\r\n}\r\n\r\n}",
  "sourcePath": "C:\\truffle-project\\contracts\\MyBank.sol",
  "compiler": {
    "name": "solc",
    "version": "0.8.15+commit.e14f2714.Emscripten.clang"
  },
  "schemaVersion": "3.4.8",
  "updatedAt": "2022-08-03T14:34:50.880Z",
  "networkType": "ethereum",
  "devdoc": {
    "kind": "dev",
    "methods": {},
    "version": 1
  },
  "userdoc": {
    "kind": "user",
    "methods": {},
    "version": 1
  }
}