{
  "contractName": "SendEther",
  "abi": [
    {
      "inputs": [
        {
          "internalType": "address payable",
          "name": "_to",
          "type": "address"
        }
      ],
      "name": "sendViaTransfer",
      "outputs": [],
      "stateMutability": "payable",
      "type": "function",
      "payable": true
    },
    {
      "inputs": [
        {
          "internalType": "address payable",
          "name": "_to",
          "type": "address"
        }
      ],
      "name": "sendViaSend",
      "outputs": [],
      "stateMutability": "payable",
      "type": "function",
      "payable": true
    },
    {
      "inputs": [
        {
          "internalType": "address payable",
          "name": "_to",
          "type": "address"
        }
      ],
      "name": "sendViaCall",
      "outputs": [],
      "stateMutability": "payable",
      "type": "function",
      "payable": true
    }
  ],
  "bytecode": "0x608060405234801561001057600080fd5b5061038d806100206000396000f3fe6080604052600436106100345760003560e01c8063636e082b1461003957806374be480614610055578063830c29ae14610071575b600080fd5b610053600480360381019061004e9190610267565b61008d565b005b61006f600480360381019061006a9190610267565b6100d7565b005b61008b60048036038101906100869190610267565b610154565b005b8073ffffffffffffffffffffffffffffffffffffffff166108fc349081150290604051600060405180830381858888f193505050501580156100d3573d6000803e3d6000fd5b5050565b60008173ffffffffffffffffffffffffffffffffffffffff166108fc349081150290604051600060405180830381858888f19350505050905080610150576040517f08c379a0000000000000000000000000000000000000000000000000000000008152600401610147906102f1565b60405180910390fd5b5050565b60008173ffffffffffffffffffffffffffffffffffffffff163460405161017a90610342565b60006040518083038185875af1925050503d80600081146101b7576040519150601f19603f3d011682016040523d82523d6000602084013e6101bc565b606091505b5050905080610200576040517f08c379a00000000000000000000000000000000000000000000000000000000081526004016101f7906102f1565b60405180910390fd5b5050565b600080fd5b600073ffffffffffffffffffffffffffffffffffffffff82169050919050565b600061023482610209565b9050919050565b61024481610229565b811461024f57600080fd5b50565b6000813590506102618161023b565b92915050565b60006020828403121561027d5761027c610204565b5b600061028b84828501610252565b91505092915050565b600082825260208201905092915050565b7f4661696c656420746f2073656e64204574686572000000000000000000000000600082015250565b60006102db601483610294565b91506102e6826102a5565b602082019050919050565b6000602082019050818103600083015261030a816102ce565b9050919050565b600081905092915050565b50565b600061032c600083610311565b91506103378261031c565b600082019050919050565b600061034d8261031f565b915081905091905056fea2646970667358221220fa3991ad91e5b28241668534ba448b944e6627eb04cdda79abdc51ffb7d2e40e64736f6c634300080f0033",
  "immutableReferences": {},
  "source": "// SPDX-License-Identifier: MIT\r\npragma solidity >=0.4.22 <0.9.0;\r\ncontract ReceiveEther {\r\n   \r\n\r\n    // Function to receive Ether. msg.data must be empty\r\n    receive() external payable {}\r\n\r\n    // Fallback function is called when msg.data is not empty\r\n    fallback() external payable {}\r\n\r\n    function getBalance() public view returns (uint) {\r\n        return address(this).balance;\r\n    }\r\n}\r\n\r\ncontract SendEther {\r\n    function sendViaTransfer(address payable _to) public payable {\r\n        // This function is no longer recommended for sending Ether.\r\n        _to.transfer(msg.value);\r\n    }\r\n\r\n    function sendViaSend(address payable _to) public payable {\r\n        // Send returns a boolean value indicating success or failure.\r\n        // This function is not recommended for sending Ether.\r\n        bool sent = _to.send(msg.value);\r\n        require(sent, \"Failed to send Ether\");\r\n    }\r\n\r\n    function sendViaCall(address payable _to) public payable {\r\n        // Call returns a boolean value indicating success or failure.\r\n        // This is the current recommended method to use.\r\n        (bool sent, ) = _to.call{value: msg.value}(\"\");\r\n        require(sent, \"Failed to send Ether\");\r\n    }\r\n}",
  "sourcePath": "C:\\truffle-project\\contracts\\sendrecieve.sol",
  "compiler": {
    "name": "solc",
    "version": "0.8.15+commit.e14f2714.Emscripten.clang"
  },
  "schemaVersion": "3.4.8",
  "updatedAt": "2022-07-26T12:41:42.709Z",
  "networkType": "ethereum",
  "devdoc": {
    "kind": "dev",
    "methods": {},
    "version": 1
  },
  "userdoc": {
    "kind": "user",
    "methods": {},
    "version": 1
  }
}