{
  "contractName": "SendMoneyWithApproval",
  "abi": [
    {
      "inputs": [],
      "name": "amount",
      "outputs": [
        {
          "internalType": "uint256",
          "name": "",
          "type": "uint256"
        }
      ],
      "stateMutability": "view",
      "type": "function",
      "constant": true
    },
    {
      "inputs": [],
      "name": "approver",
      "outputs": [
        {
          "internalType": "address",
          "name": "",
          "type": "address"
        }
      ],
      "stateMutability": "view",
      "type": "function",
      "constant": true
    },
    {
      "inputs": [],
      "name": "receiver",
      "outputs": [
        {
          "internalType": "address payable",
          "name": "",
          "type": "address"
        }
      ],
      "stateMutability": "view",
      "type": "function",
      "constant": true
    },
    {
      "inputs": [],
      "name": "sender",
      "outputs": [
        {
          "internalType": "address",
          "name": "",
          "type": "address"
        }
      ],
      "stateMutability": "view",
      "type": "function",
      "constant": true
    },
    {
      "inputs": [
        {
          "internalType": "address",
          "name": "_sender",
          "type": "address"
        },
        {
          "internalType": "address payable",
          "name": "_receiver",
          "type": "address"
        },
        {
          "internalType": "address",
          "name": "_approver",
          "type": "address"
        },
        {
          "internalType": "uint256",
          "name": "_amount",
          "type": "uint256"
        }
      ],
      "name": "deposit",
      "outputs": [],
      "stateMutability": "payable",
      "type": "function",
      "payable": true
    },
    {
      "inputs": [],
      "name": "getBalance",
      "outputs": [
        {
          "internalType": "uint256",
          "name": "",
          "type": "uint256"
        }
      ],
      "stateMutability": "view",
      "type": "function",
      "constant": true
    },
    {
      "inputs": [],
      "name": "viewApprover",
      "outputs": [
        {
          "internalType": "address",
          "name": "",
          "type": "address"
        }
      ],
      "stateMutability": "view",
      "type": "function",
      "constant": true
    },
    {
      "inputs": [],
      "name": "approve",
      "outputs": [],
      "stateMutability": "payable",
      "type": "function",
      "payable": true
    }
  ],
  "bytecode": "0x6080604052600060035534801561001557600080fd5b50610653806100256000396000f3fe60806040526004361061007b5760003560e01c806367e404ce1161004e57806367e404ce146100fc578063aa8c217c14610127578063d93ce89c14610152578063f7260d3e1461017d5761007b565b80630284c3f51461008057806312065fe01461009c57806312424e3f146100c7578063141a8dd8146100d1575b600080fd5b61009a600480360381019061009591906104af565b6101a8565b005b3480156100a857600080fd5b506100b1610277565b6040516100be9190610525565b60405180910390f35b6100cf6102b8565b005b3480156100dd57600080fd5b506100e6610338565b6040516100f3919061054f565b60405180910390f35b34801561010857600080fd5b5061011161035e565b60405161011e919061054f565b60405180910390f35b34801561013357600080fd5b5061013c610382565b6040516101499190610525565b60405180910390f35b34801561015e57600080fd5b50610167610388565b604051610174919061054f565b60405180910390f35b34801561018957600080fd5b506101926103b2565b60405161019f9190610579565b60405180910390f35b836000806101000a81548173ffffffffffffffffffffffffffffffffffffffff021916908373ffffffffffffffffffffffffffffffffffffffff16021790555082600160006101000a81548173ffffffffffffffffffffffffffffffffffffffff021916908373ffffffffffffffffffffffffffffffffffffffff16021790555081600260006101000a81548173ffffffffffffffffffffffffffffffffffffffff021916908373ffffffffffffffffffffffffffffffffffffffff1602179055508060038190555050505050565b6000600160009054906101000a900473ffffffffffffffffffffffffffffffffffffffff1673ffffffffffffffffffffffffffffffffffffffff1631905090565b600160009054906101000a900473ffffffffffffffffffffffffffffffffffffffff1673ffffffffffffffffffffffffffffffffffffffff166108fc670de0b6b3a764000060035461030a91906105c3565b9081150290604051600060405180830381858888f19350505050158015610335573d6000803e3d6000fd5b50565b600260009054906101000a900473ffffffffffffffffffffffffffffffffffffffff1681565b60008054906101000a900473ffffffffffffffffffffffffffffffffffffffff1681565b60035481565b6000600260009054906101000a900473ffffffffffffffffffffffffffffffffffffffff16905090565b600160009054906101000a900473ffffffffffffffffffffffffffffffffffffffff1681565b600080fd5b600073ffffffffffffffffffffffffffffffffffffffff82169050919050565b6000610408826103dd565b9050919050565b610418816103fd565b811461042357600080fd5b50565b6000813590506104358161040f565b92915050565b6000610446826103dd565b9050919050565b6104568161043b565b811461046157600080fd5b50565b6000813590506104738161044d565b92915050565b6000819050919050565b61048c81610479565b811461049757600080fd5b50565b6000813590506104a981610483565b92915050565b600080600080608085870312156104c9576104c86103d8565b5b60006104d787828801610426565b94505060206104e887828801610464565b93505060406104f987828801610426565b925050606061050a8782880161049a565b91505092959194509250565b61051f81610479565b82525050565b600060208201905061053a6000830184610516565b92915050565b610549816103fd565b82525050565b60006020820190506105646000830184610540565b92915050565b6105738161043b565b82525050565b600060208201905061058e600083018461056a565b92915050565b7f4e487b7100000000000000000000000000000000000000000000000000000000600052601160045260246000fd5b60006105ce82610479565b91506105d983610479565b9250817fffffffffffffffffffffffffffffffffffffffffffffffffffffffffffffffff048311821515161561061257610611610594565b5b82820290509291505056fea26469706673582212200e853706e99bf787de74fdacab5a39c21d395ef221d1894be37870c5fdab6c1164736f6c634300080f0033",
  "immutableReferences": {},
  "source": "// SPDX-License-Identifier: MIT\r\npragma solidity >=0.4.22 <0.9.0;\r\n//Main class that will be used to perform operation on our block.\r\ncontract SendMoneyWithApproval\r\n{\r\n    address public sender;\r\n    address payable public receiver;\r\n    address public approver;\r\n    uint public amount = 0;\r\n \r\n //function() external payable {  }\r\n\r\n  function deposit(address _sender, address payable _receiver, address _approver, uint _amount) public payable {\r\n    sender = _sender;\r\n    receiver = _receiver;\r\n    approver = _approver;\r\n    amount = _amount;\r\n  }\r\n  \r\n  function getBalance() public view returns(uint)\r\n       {\r\n           return (receiver).balance;\r\n       }       \r\n\r\n  function viewApprover() external view returns(address) {\r\n    return(approver);\r\n  }\r\n   function approve() public payable {  \r\n     receiver.transfer(amount * (1 ether));\r\n     //return true;\r\n   }\r\n\r\n// function sendAmount() external payable {\r\n//      payable(receiver).transfer(1);\r\n//   }\r\n  \r\n}",
  "sourcePath": "C:\\truffle-project\\contracts\\SendMoneyWithApproval.sol",
  "compiler": {
    "name": "solc",
    "version": "0.8.15+commit.e14f2714.Emscripten.clang"
  },
  "schemaVersion": "3.4.8",
  "updatedAt": "2022-08-03T14:36:22.086Z",
  "networkType": "ethereum",
  "devdoc": {
    "kind": "dev",
    "methods": {},
    "version": 1
  },
  "userdoc": {
    "kind": "user",
    "methods": {},
    "version": 1
  }
}