{
  "contractName": "SendMoney",
  "abi": [
    {
      "inputs": [],
      "name": "receiver",
      "outputs": [
        {
          "internalType": "address",
          "name": "",
          "type": "address"
        }
      ],
      "stateMutability": "view",
      "type": "function",
      "constant": true
    },
    {
      "inputs": [],
      "name": "sendAmount",
      "outputs": [],
      "stateMutability": "payable",
      "type": "function",
      "payable": true
    }
  ],
  "bytecode": "0x6080604052736b39c13d692098414fb49a89efda79f88199200b6000806101000a81548173ffffffffffffffffffffffffffffffffffffffff021916908373ffffffffffffffffffffffffffffffffffffffff16021790555034801561006457600080fd5b50610183806100746000396000f3fe6080604052600436106100295760003560e01c80638b2b3d8b1461002e578063f7260d3e14610038575b600080fd5b610036610063565b005b34801561004457600080fd5b5061004d6100cd565b60405161005a9190610132565b60405180910390f35b60008054906101000a900473ffffffffffffffffffffffffffffffffffffffff1673ffffffffffffffffffffffffffffffffffffffff166108fc60019081150290604051600060405180830381858888f193505050501580156100ca573d6000803e3d6000fd5b50565b60008054906101000a900473ffffffffffffffffffffffffffffffffffffffff1681565b600073ffffffffffffffffffffffffffffffffffffffff82169050919050565b600061011c826100f1565b9050919050565b61012c81610111565b82525050565b60006020820190506101476000830184610123565b9291505056fea264697066735822122041503c1a1dca65deacb54ea7b2cce7113e6588a159873639387b3f665888153a64736f6c634300080f0033",
  "immutableReferences": {},
  "source": "// SPDX-License-Identifier: MIT\r\npragma solidity >=0.4.22 <0.9.0;\r\n//Main class that will be used to perform operation on our block.\r\ncontract SendMoney\r\n{\r\n\r\n    address public receiver =  0x6B39c13d692098414FB49A89efDa79F88199200B;\r\n\r\n\r\nfunction sendAmount() external payable {\r\n     payable(receiver).transfer(1);\r\n  }\r\n  \r\n}",
  "sourcePath": "C:\\truffle-project\\contracts\\SendMoney.sol",
  "compiler": {
    "name": "solc",
    "version": "0.8.15+commit.e14f2714.Emscripten.clang"
  },
  "schemaVersion": "3.4.8",
  "updatedAt": "2022-08-03T14:35:21.017Z",
  "networkType": "ethereum",
  "devdoc": {
    "kind": "dev",
    "methods": {},
    "version": 1
  },
  "userdoc": {
    "kind": "user",
    "methods": {},
    "version": 1
  }
}