{
  "contractName": "SendMoneyApproval",
  "abi": [
    {
      "inputs": [],
      "name": "approver",
      "outputs": [
        {
          "internalType": "address",
          "name": "",
          "type": "address"
        }
      ],
      "stateMutability": "view",
      "type": "function",
      "constant": true
    },
    {
      "inputs": [],
      "name": "receiver",
      "outputs": [
        {
          "internalType": "address",
          "name": "",
          "type": "address"
        }
      ],
      "stateMutability": "view",
      "type": "function",
      "constant": true
    },
    {
      "inputs": [],
      "name": "sender",
      "outputs": [
        {
          "internalType": "address",
          "name": "",
          "type": "address"
        }
      ],
      "stateMutability": "view",
      "type": "function",
      "constant": true
    },
    {
      "inputs": [
        {
          "internalType": "address",
          "name": "_sender",
          "type": "address"
        },
        {
          "internalType": "address",
          "name": "_receiver",
          "type": "address"
        }
      ],
      "name": "deposit",
      "outputs": [],
      "stateMutability": "payable",
      "type": "function",
      "payable": true
    },
    {
      "inputs": [],
      "name": "approve",
      "outputs": [],
      "stateMutability": "nonpayable",
      "type": "function"
    }
  ],
  "bytecode": "0x60806040527325c0f7fc38b0d54ea69d93b676338e10122e161c600260006101000a81548173ffffffffffffffffffffffffffffffffffffffff021916908373ffffffffffffffffffffffffffffffffffffffff16021790555034801561006557600080fd5b50610367806100756000396000f3fe60806040526004361061004a5760003560e01c806312424e3f1461004f578063141a8dd81461006657806367e404ce14610091578063f7260d3e146100bc578063f9609f08146100e7575b600080fd5b34801561005b57600080fd5b50610064610103565b005b34801561007257600080fd5b5061007b61016f565b60405161008891906102a5565b60405180910390f35b34801561009d57600080fd5b506100a6610195565b6040516100b391906102a5565b60405180910390f35b3480156100c857600080fd5b506100d16101b9565b6040516100de91906102a5565b60405180910390f35b61010160048036038101906100fc91906102f1565b6101df565b005b600160009054906101000a900473ffffffffffffffffffffffffffffffffffffffff1673ffffffffffffffffffffffffffffffffffffffff166108fc60019081150290604051600060405180830381858888f1935050505015801561016c573d6000803e3d6000fd5b50565b600260009054906101000a900473ffffffffffffffffffffffffffffffffffffffff1681565b60008054906101000a900473ffffffffffffffffffffffffffffffffffffffff1681565b600160009054906101000a900473ffffffffffffffffffffffffffffffffffffffff1681565b816000806101000a81548173ffffffffffffffffffffffffffffffffffffffff021916908373ffffffffffffffffffffffffffffffffffffffff16021790555080600160006101000a81548173ffffffffffffffffffffffffffffffffffffffff021916908373ffffffffffffffffffffffffffffffffffffffff1602179055505050565b600073ffffffffffffffffffffffffffffffffffffffff82169050919050565b600061028f82610264565b9050919050565b61029f81610284565b82525050565b60006020820190506102ba6000830184610296565b92915050565b600080fd5b6102ce81610284565b81146102d957600080fd5b50565b6000813590506102eb816102c5565b92915050565b60008060408385031215610308576103076102c0565b5b6000610316858286016102dc565b9250506020610327858286016102dc565b915050925092905056fea2646970667358221220713babf2fb56b3ad467b8e4ffd4ef55fbd5d19a327242197b4a0f9adc5ac71a764736f6c634300080f0033",
  "immutableReferences": {},
  "source": "// SPDX-License-Identifier: MIT\r\npragma solidity >=0.4.22 <0.9.0;\r\n//Main class that will be used to perform operation on our block.\r\ncontract SendMoneyApproval\r\n{\r\n    address public sender;\r\n    address public receiver;\r\n    address public approver = 0x25C0F7Fc38B0d54ea69D93b676338e10122e161c;\r\n\r\n  function deposit(address _sender, address _receiver) external payable {\r\n    sender = _sender;\r\n    receiver = _receiver;\r\n  }\r\n\r\n   function approve() external {\r\n    payable (receiver).transfer(1);\r\n   }\r\n// function sendAmount() external payable {\r\n//      payable(receiver).transfer(1);\r\n//   }\r\n  \r\n}",
  "sourcePath": "C:\\truffle-project\\contracts\\SendMoneyApproval.sol",
  "compiler": {
    "name": "solc",
    "version": "0.8.15+commit.e14f2714.Emscripten.clang"
  },
  "schemaVersion": "3.4.8",
  "updatedAt": "2022-08-03T14:35:50.923Z",
  "networkType": "ethereum",
  "devdoc": {
    "kind": "dev",
    "methods": {},
    "version": 1
  },
  "userdoc": {
    "kind": "user",
    "methods": {},
    "version": 1
  }
}